:020000040800F2
:10000000B0100020150400080101000803010008D9
:100010000F0100081B010008270100080000000074
:100020000000000000000000000000003301000894
:1000300035010008000000002B040008370100080B
:100040002F0400082F0400082F0400083B010008BB
:100050002F0400082F040008390100082F040008AD
:100060002F0400082F0400082F0400082F040008A4
:100070002F0400082F0400082F0400082F04000894
:100080002F0400082F0400082F0400082F04000884
:100090002F0400082F0400082F0400082F04000874
:1000A0002F0400082F0400082F0400082F04000864
:1000B0002F0400082F0400082F0400082F04000854
:1000C0002F0400082F0400082F0400082F04000844
:1000D0002F040008AF280008117100082F04000841
:1000E000752900082F0400082F040008DFF80CD041
:1000F00009F0D8FC00480047B3490008B0100020C0
:1001000070470EA11C4802F0AEFB00BFFEE71BA12A
:10011000194802F0A8FB00BFFEE727A1164802F02D
:10012000A2FB00BFFEE733A1134802F09CFB00BF17
:10013000FEE7704770477047704770470D0A2A2ADC
:100140002A2A2A2A2A2A2A2A2A2A2A2A2A2A2A2A0F
:100150002A486172644661756C745F48616E646CB4
:1001600065722A2A2A2A2A2A2A2A2A2A2A2A2A2A6C
:100170002A2A2A2A2A0D0A00003801400D0A2A2AB2
:100180002A2A2A2A2A2A2A2A2A2A2A2A2A2A2A2ACF
:100190002A4D656D4D616E6167655F48616E646C87
:1001A00065722A2A2A2A2A2A2A2A2A2A2A2A2A2A2C
:1001B0002A2A2A2A2A0D0A000D0A2A2A2A2A2A2A43
:1001C0002A2A2A2A2A2A2A2A2A2A2A2A2A427573E3
:1001D0004661756C745F48616E646C65722A2A2A88
:1001E0002A2A2A2A2A2A2A2A2A2A2A2A2A2A2A2A6F
:1001F0000D0A00000D0A2A2A2A2A2A2A2A2A2A2A2D
:100200002A2A2A2A2A2A2A2A2A55736167654661D8
:10021000756C745F48616E646C65722A2A2A2A2A9A
:100220002A2A2A2A2A2A2A2A2A2A2A2A2A2A0D0A6B
:10023000000000000CB50020019000906C480068A0
:1002400040F480306A49086000BF6948006800F4E3
:10025000003000900198401C0190009818B9019856
:10026000B0F5A06FF1D16248006800F4003010B121
:100270000120009001E0002000900098012843D167
:100280005C48006840F010005A4908600846006861
:1002900020F0030008600846006840F00200086093
:1002A00053484068524948600846406848600846DC
:1002B000406840F4806048600846406820F47C1044
:1002C00048600846406840F4E81048600846006806
:1002D00040F08070086000BF4548006800F0007082
:1002E0000028F9D04248406820F0030040494860A7
:1002F0000846406840F00200486000BF3C48406843
:1003000000F00C000828F9D10CBD10B5FFF792FFE2
:1003100010BD10B53648006840F00100344908604F
:10032000084640683449084031494860084600683A
:10033000324908402E4908600846006820F48020B1
:1003400008600846406820F4FE0048604FF41F0033
:100350008860FFF7DAFF4FF000602949086010BDA0
:1003600010B5002100200022214B5B6803F00C0136
:1003700021B1042906D0082928D107E0214B224CBD
:10038000236027E01F4B204C236023E0184B5B6861
:1003900003F47010164B5B6803F48032022303EB06
:1003A000904022B9194B4343174C23600DE0104B8A
:1003B0005B6803F4003323B1144B4343124C2360B6
:1003C00003E0104B4343104C236003E00D4B0E4CF5
:1003D000236000BF00BF064B5B68C3F303130C4CE4
:1003E000E15C094B1B68CB40074C236010BD00004B
:1003F00000100240002002400000FFF8FFFFF6FE60
:1004000008ED00E000127A000000002000093D0025
:10041000040000200648804706480047FEE7FEE744
:10042000FEE7FEE7FEE7FEE7FEE7FEE7FEE7FEE7A4
:1004300013030008ED00000831490143314A1160FF
:10044000704770B5002100230F22C47804B32D4CEF
:10045000246804F4E064C4F5E064210AC1F10403F3
:10046000CA40447804FA03F1847814402143090116
:10047000254C0678A155047804F01F050124AC40F2
:1004800005786D11AD0005F1E025C5F8004109E0E2
:10049000047804F01F050124AC401C4D0678761149
:1004A00045F8264070BD1A4A0A400243154B1B1FEF
:1004B0001A60704739B1134A121D12680243114B7A
:1004C0001B1D1A6006E00F4A121D126882430D4B75
:1004D0001B1D1A607047042808D14FF0E0210969FC
:1004E00041F004014FF0E022116107E04FF0E021FC
:1004F000096921F004014FF0E0221161704700000A
:100500000000FA050CED00E000E400E080E100E00E
:1005100080FFFF1F10B50446CC48844208D101215A
:10052000042000F02DFB0021042000F029FB46E010
:10053000C748844208D10121082000F021FB002196
:10054000082000F01DFB3AE0C248844208D1012196
:10055000102000F015FB0021102000F011FB2EE010
:10056000BD48844208D10121202000F009FB002170
:10057000202000F005FB22E0B848844208D1012188
:10058000402000F0FDFA0021402000F0F9FA16E0CA
:10059000B348844208D10121802000F0F1FA002103
:1005A000802000F0EDFA0AE0AE48844207D1012134
:1005B000801500F0E5FA0021A01500F0E1FA10BD69
:1005C00010B50121084600F0DBFA0021012000F0FF
:1005D000D7FA10BD2DE9F041024600250026002083
:1005E00000230024002791F803C00CF00F0591F8B8
:1005F00003C00CF0100CBCF1000F03D091F802C046
:100600004CEA050591F800C0BCF1000F31D0146828
:1006100000202BE04FF0010C0CFA00F3B1F800C001
:100620000CEA03069E4220D183004FF00F0C0CFA17
:1006300003F7BC4305FA03FC4CEA040491F803C039
:10064000BCF1280F06D14FF0010C0CFA00FCC2F8E7
:1006500014C00AE091F803C0BCF1480F05D14FF077
:10066000010C0CFA00FCC2F810C0401C0828D1D3C1
:100670001460B1F800C0BCF1FF0F34DD54680020F5
:100680002EE000F1080C4FF0010808FA0CF3B1F865
:1006900000C00CEA03069E4221D183004FF00F0CEC
:1006A0000CFA03F7BC4305FA03FC4CEA040491F886
:1006B00003C0BCF1280F05D100F1080C08FA0CF8B2
:1006C000C2F8148091F803C0BCF1480F07D100F1C3
:1006D000080C4FF0010808FA0CF8C2F81080401C12
:1006E0000828CED35460BDE8F0814FF6FF71018039
:1006F000022181700421C170704702460020936876
:100700000B400BB1012000E00020704701468868D3
:1007100080B2704702460020D3680B400BB1012025
:1007200000E0002070470146C86880B27047016150
:100730007047416170470AB1016100E04161704753
:10074000C16070474FF480320A43826181618261E7
:1007500082698269704702460020434B18684FF651
:100760008073184040EA021008433F4B18607047FE
:100770003E49C8617047F0B50A46002300240021B5
:10078000002500F00046B6F1004F02D1364EF16967
:1007900001E0354E7168C0F3034583B200F44016A2
:1007A000B6F5401F08D121F070612F4E766826F013
:1007B00070662D4F7E6012E000F48016B6F5801F43
:1007C00006D1032606FA05F4A14341F0706106E064
:1007D000460D360103FA06F6B14341F0706122B1CD
:1007E000460D360103FA06F6314300F00046B6F135
:1007F000004F02D11C4EF16101E01B4E7160F0BD53
:1008000030B500228B071C0F0F2303FA04F2164B9E
:1008100008338C1053F824309343134C08348D1054
:1008200044F8253023468C1053F824308C07240FCD
:1008300000FA04F423430C4C08348D1044F825309E
:1008400030BD0A49DC3108607047000000080140F3
:10085000000C01400010014000140140001801404C
:10086000001C014000200140000001400000204227
:10087000DF48006840F00100DD4908600846406834
:10088000DC490840DA49486008460068DA4908400F
:10089000D74908600846006820F4802008600846B0
:1008A000406820F4FE0048604FF41F0088607047E5
:1008B000CF49096821F48031CD4A11601146096899
:1008C00021F480211160B0F5803F03D0B0F5802F76
:1008D0000ED106E0C649096841F48031C44A11606E
:1008E00007E0C349096841F4A021C14A116000E052
:1008F00000BF00BF704710B5014600220023002052
:100900004A11012A02D1BA4C236806E0022A02D118
:10091000B74C236A01E0B64C636A01F01F02012460
:1009200094401C400CB1012000E0002010BD38B5FF
:10093000002000900024002500BF3120FFF7DBFFDE
:1009400005460098401C00900098B0F5A06F01D0BB
:10095000002DF2D03120FFF7CEFF08B1012400E0D6
:100960000024204638BD01460020A14A106820F02E
:10097000F80040EAC10010607047A0490860704765
:10098000024600209A4B586820F47C1042EA01038A
:100990001843974B5860704798490866704701465E
:1009A0000020934A506820F00300084350607047CD
:1009B0008F48406800F00C007047014600208C4AC8
:1009C000506820F0F0000843506070470146002056
:1009D000874A506820F4E060084350607047014641
:1009E0000020834A506820F4605040EAC100506003
:1009F000704729B17E4A527A02437D4B5A7204E015
:100A00007B4A527A82437A4B5A7270477B49D8317B
:100A10000860704701460020754A506820F4404045
:100A20000843506070470021714A20321170704AAB
:100A300082F82010012802D004280AD104E0012104
:100A40006B4A2032117005E00521694A203211708D
:100A500000E000BF00BF7047694908607047644903
:100A6000096A0143624A1162704765494439086066
:100A7000704730B500210022002400235C4D6D68D2
:100A800005F00C0121B1042905D0082923D105E086
:100A90005C4D056022E05B4D05601FE0544D6D68C4
:100AA00005F47012524D6D6805F48034022505EB93
:100AB00092421CB9544D554305600BE04C4D6D6896
:100AC00005F400351DB1504D5543056002E04D4D14
:100AD0005543056002E04B4D056000BF00BF444D2B
:100AE0006D6805F0F0010909484D6B5C0568DD4053
:100AF00045603F4D6D6805F4E061090A434D6B5C4C
:100B00004568DD4085603A4D6D6805F46051C90A5D
:100B10003E4D6B5C4568DD40C560354D6D6805F444
:100B20004041890B3A4D6B5CC568B5FBF3F5056137
:100B300030BD29B12E4A526902432D4B5A6104E05F
:100B40002B4A526982432A4B5A61704729B1284A7D
:100B500092690243264B9A6104E0254A92698243D6
:100B6000234B9A61704729B1214AD2690243204B35
:100B7000DA6104E01E4AD26982431D4BDA61704794
:100B800029B11B4AD2680243194BDA6004E0184AC3
:100B9000D2688243164BDA60704729B1144A126951
:100BA0000243134B1A6104E0114A12698243104B4D
:100BB0001A61704712494039086070470F49C8648C
:100BC00070470B49C87170470948406A40F080700F
:100BD00007494862704701460020054A92680A406A
:100BE0000AB1012000E00020704701498872704777
:100BF000001002400000FFF8FFFFF6FE0000424236
:100C00008004424200127A0000093D0014000020D6
:100C10002400002010B50446FB48844209D101217C
:100C20008803FFF7ADFF00214FF48040FFF7A8FFD6
:100C300032E0F648844209D101214804FFF7ADFFB4
:100C400000214FF40030FFF7A8FF25E0F048844270
:100C500009D101218804FFF7A0FF00214FF4802073
:100C6000FFF79BFF18E0EB48844209D10121C8043B
:100C7000FFF793FF00214FF40020FFF78EFF0BE0FA
:100C8000E548844208D101210805FFF786FF0021CD
:100C90004FF48010FFF781FF10BD2DE9F04786B0BB
:100CA00005460E460024A24600BFA1460027B08993
:100CB00000B100BF2F462C8A4CF6FF700440F0882C
:100CC00004432C82AC894EF6F3100440B08831897D
:100CD0000843718908430443AC81AC8A4FF6FF4056
:100CE0000440B0890443AC8201A8FFF7C2FEC648A5
:100CF000874202D1DDF810A001E0DDF80CA0A88940
:100D000000F4004040B10AEBCA0000EB0A10316861
:100D10004900B0FBF1F807E00AEBCA0000EB0A104B
:100D200031688900B0FBF1F86420B8FBF0F00401F1
:100D30002009642101FB1089A88900F4004040B11A
:100D4000322000EBC900B0FBF1F000F007000443D3
:100D500008E0322000EB09106421B0FBF1F000F054
:100D60000F0004432C8106B0BDE8F0874FF4165104
:100D7000016000218180C18001810C21418100211D
:100D80008181704710B502460020108A4FF2FF03A0
:100D900018400B884C8823438C882343CC882343FA
:100DA0001843108210BD0021018041808180C180E4
:100DB000704721B1828942F40052828104E0828925
:100DC0004DF6FF731A4082817047F0B50346002448
:100DD00000260025002040F66A17B94200D100BF66
:100DE0001846C1F3421401F01F06012707FA06F561
:100DF000012C01D10C3004E0022C01D1103000E0B4
:100E000014301AB107682F43076002E00768AF4348
:100E10000760F0BD1AB1838A0B43838202E0838AA4
:100E20008B4383827047028A4FF6F0731A40028226
:100E3000028A0A430282704782894FF2FF731A4086
:100E4000828182890A438281704721B1828942F07E
:100E50000202828104E082894FF6FD731A4082818A
:100E60007047028A4FF6DF731A400282028A0A43F1
:100E70000282704721B1028A42F48042028204E079
:100E8000028A4BF6FF731A4002827047C1F30802D0
:100E90008280704701468888C0F3080070478189C6
:100EA00041F0010181817047028BD2B20283028B33
:100EB00042EA012202837047028B02F47F420283DE
:100EC000028B0A430283704721B1828A42F02002DA
:100ED000828204E0828A4FF6DF731A408282704772
:100EE00021B1828A42F01002828204E0828A4FF6A7
:100EF000EF731A408282704721B1828A42F0080261
:100F0000828204E0828A4FF6F7731A408282704729
:100F100021B1828942F40042828103E08289C2F3D6
:100F20000E028281704721B1828A42F4006282827D
:100F300004E0828A4FF2FF731A4082827047828AED
:100F40004FF6FB731A408282828A0A43828270477C
:100F500021B1828A42F00202828204E0828A4FF644
:100F6000FD731A408282704702460020B1F5007F6F
:100F700000D100BF13880B400BB1012000E000201E
:100F8000704701F40072B2F5007F00D100BFCA4380
:100F90000280704770B5024600240023002500201F
:100FA00040F66A16B14200D100BFC1F3421501F00C
:100FB0001F03012606FA03F3012D02D1968933405F
:100FC00006E0022D02D1168A334001E0968A3340B2
:100FD0000C12012606FA04F41688344013B10CB141
:100FE000012000E0002070BD10B50022002340F673
:100FF0006A14A14200D100BF0A1201249440A3B296
:10100000DC43048010BD0000003801400044004073
:1010100000480040004C004000500040002044497F
:101020000860091D0860091D0860091D0860414825
:101030003F4914310860704700213D498279002AF8
:101040003AD00A46126803689A430B461A600A1D92
:10105000126803689A430B1D1A60027911440A68EA
:1010600003681A430A60324A0832126803689A43D6
:101070002F4B08331A601A1D126803689A432C4BD1
:101080000C331A604279102A0ED11A1F12680368B5
:101090001A43274B08331A601A1D126803681A4353
:1010A000234B0C331A600DE02149427911440A6840
:1010B00003681A430A6005E0027911440A6803686C
:1010C0009A430A6070470021016001710C2141714F
:1010D0000021817170471649103109680143144A93
:1010E00010321160704701460020114A1432126814
:1010F0000A400AB1012000E0002070470C49143179
:1011000008607047014600200022094B1B6803EA73
:101110000102074B14331B680B4013B10AB10120C5
:1011200000E0002070470249143108607047000059
:1011300000040140FFFF0F0010B50446FA48844246
:1011400008D101214015FFF71BFD00216015FFF7B5
:1011500017FD17E0F548844208D101210015FFF77B
:101160000FFD00212015FFF70BFD0BE0F048844236
:1011700008D10121C803FFF703FD00214FF400400F
:10118000FFF7FEFC10BD30B502460020002350687A
:10119000E84C20400D790C6844EA05242043506057
:1011A0009068E54C2040D1E902542C434D7944EA43
:1011B000450420439060D06A20F470000C7C641ECB
:1011C000E4B2234340EA0350D06230BD0021016005
:1011D000017141718160C16001210174704721B1C9
:1011E000826842F00102826003E0826822F001021C
:1011F0008260704721B1826842F48072826003E0AD
:10120000826822F480728260704710B50023CBB2EE
:101210001AB144681C43446002E044689C43446043
:1012200010BD816841F008018160704701460020CF
:101230008A6802F008020AB1012000E0002070472D
:10124000816841F0040181607047014600208A688E
:1012500002F004020AB1012000E00020704721B131
:10126000826842F4A002826003E0826822F4A00255
:1012700082607047014600208A6802F480020AB149
:10128000012000E00020704710B50A46002100232D
:10129000416821F46041531E41EA4331416010BD71
:1012A00021B1426842F40062426003E0426822F4E5
:1012B000006242607047F0B504460D4600200021F0
:1012C000092D11DDE068A5F10A0606EB46070726A1
:1012D00006FA07F18843A5F10A0606EB460603FA6B
:1012E00006F10843E0600CE0206905EB450707269E
:1012F00006FA07F1884305EB450603FA06F10843B1
:101300002061072A0FDA606B561E06EB86071F2640
:1013100006FA07F18843561E06EB860605FA06F123
:101320000843606322E00D2A0FDA206BD61F06EB1C
:1013300086071F2606FA07F18843D61F06EB8606A6
:1013400005FA06F10843206310E0E06AA2F10D06F9
:1013500006EB86071F2606FA07F18843A2F10D0661
:1013600006EB860605FA06F10843E062F0BD21B1FE
:10137000826842F48012826003E0826822F4801264
:10138000826070470146C86C80B2704766484C3036
:101390000068704721B1426842F48062426003E015
:1013A000426822F480624260704721B1426842F490
:1013B0008052426003E0426822F4805242607047EB
:1013C0000A460021816821F4E041114381607047A1
:1013D00021B1826842F40042826003E0826822F414
:1013E00000428260704721B1826842F4021282603A
:1013F00003E0826822F402128260704701460020F6
:101400008A6802F400120AB1012000E0002070474F
:10141000F0B504461546002000220026092911DDFA
:10142000E068A1F10A0707EB470C072707FA0CF25F
:101430009043A1F10A0707EB470703FA07F21043AD
:10144000E0600CE0206901EB410C072707FA0CF281
:10145000904301EB410703FA07F210432061A06BB0
:10146000C0F30156EF1C06F1010CA7EB0C0707EBCC
:10147000870C1F2707FA0CF29043EF1C06F1010CB2
:10148000A7EB0C0707EB870701FA07F21043A063ED
:10149000F0BD10B50A4600210023816B21F44011F4
:1014A000531E41EA0351816310BD08B50023009328
:1014B0000090009B0B440093009B1A6008BD08B588
:1014C000024600200090009201F12800009B184481
:1014D00000900098006880B208BD0A46002141686B
:1014E000164B194011434160704741628262704758
:1014F0000A460021416821F01F01114341607047F5
:1015000040B109490831096841F40001064A08322E
:10151000116007E004490831096821F40001024A1A
:10152000083211607047000000240140002801408B
:10153000003C0140FFFEF0FFFDF7F1FFFFFD3FFF24
:101540000246002013680B400BB1012000E0002090
:101550007047CA430260704770B5024600200023FE
:1015600000240B125568CEB205EA060415681D402A
:1015700015B10CB1012000E0002070BD00220A125C
:10158000D34303607047000001684FF6FE721140BC
:1015900001600021016041608160C1608D49884225
:1015A00008D18C490839496841F00F01894A083A45
:1015B00051608AE087491431884208D18549083949
:1015C000496841F0F001834A083A51607DE0814961
:1015D0002831884208D17F490839496841F470614F
:1015E0007C4A083A516070E07A493C31884208D11F
:1015F00078490839496841F47041764A083A51609F
:1016000063E074495031884208D172490839496809
:1016100041F470216F4A083A516056E06D496431D7
:10162000884208D16B490839496841F47001694A18
:10163000083A516049E067497831884208D16549E4
:101640000839496841F07061624A083A51603CE0EB
:101650006149884206D1011F096841F00F01021F4C
:10166000116032E05C491431884208D15A49091F9F
:10167000096841F0F001584A121F116025E05649EF
:101680002831884208D15449091F096841F4706122
:10169000514A121F116018E04F493C31884208D16D
:1016A0004D49091F096841F470414B4A121F1160EE
:1016B0000BE049495031884207D14749091F096861
:1016C00041F47021444A121F1160704710B5002286
:1016D000026847F6F0739A430C6A8B6823430C69DF
:1016E00023434C6923438C692343CC6923434C6ACD
:1016F00023438C6A23431A430260CB6843600B6820
:1017000083604B68C36010BD00210160416081604F
:10171000C160016141618161C161016241628162B7
:10172000704721B1026842F00102026004E00268E1
:101730004FF6FE731A40026070471AB103680B43FC
:10174000036002E003688B430360704741607047A9
:101750000146486880B2704701460020002201F02F
:1017600080531BB11C4B083B1A6802E0194B083B25
:101770001A6802EA01030BB1012000E00020704763
:1017800000F0805119B11449091F086002E01149A5
:1017900008394860704701460020002201F080535C
:1017A0001BB10D4B083B1A6802E00A4B083B1A6854
:1017B00002EA01030BB1012000E00020704700F0B5
:1017C000805119B10449091F086002E00149083934
:1017D00048607047080002400804024010B5044603
:1017E000FE48844208D10121C014FFF7C9F9002145
:1017F000E014FFF7C5F9C4E0B4F1804F08D101212E
:101800000846FFF7CAF900210120FFF7C6F9B8E042
:10181000F348844208D101210220FFF7BEF90021DC
:101820000220FFF7BAF9ACE0EE48844208D101216A
:101830000420FFF7B2F900210420FFF7AEF9A0E081
:10184000E948844208D101210820FFF7A6F90021C8
:101850000820FFF7A2F994E0E448844208D101216E
:101860001020FFF79AF900211020FFF796F988E081
:10187000DF48844208D101212020FFF78EF90021A2
:101880002020FFF78AF97CE0DA48844208D1012160
:101890004014FFF775F900216014FFF771F970E04B
:1018A000D548844209D10121C804FFF769F9002114
:1018B0004FF40020FFF764F963E0D048844209D177
:1018C00001210805FFF75CF900214FF48010FFF7B4
:1018D00057F956E0CA48844209D101214805FFF76B
:1018E0004FF900214FF40010FFF74AF949E0C548CD
:1018F000844208D101214020FFF74FF90021402008
:10190000FFF74BF93DE0C048844208D10121802017
:10191000FFF743F900218020FFF73FF931E0BB4892
:10192000844208D101218015FFF737F90021A01565
:10193000FFF733F925E0B648844209D101210804B4
:10194000FFF71EF900214FF48030FFF719F918E076
:10195000B048844209D101214804FFF711F9002160
:101960004FF40030FFF70CF90BE0AB48844208D18C
:1019700001218804FFF704F900214FF48020FFF7CC
:10198000FFF810BD00220288944B98420ED0994B6C
:1019900098420BD0B0F1804F08D0914B984205D0BF
:1019A000904B984202D0904B984204D14FF68F73DF
:1019B0001A404B881A438D4B984207D08C4B984263
:1019C00004D04FF6FF431A40CB881A4302808B881D
:1019D00083850B880385814B98420BD0854B9842B9
:1019E00008D08B4B984205D08A4B984202D08A4B44
:1019F000984201D10B7A038601238382704770B528
:101A0000002400220023058C4FF6FE763540058425
:101A1000028C8388048B4FF68F752C40B51E2C40AA
:101A20000D882C43751E2A400D892A434D882A4370
:101A30006A4DA8420BD06F4DA84208D0744DA84201
:101A400005D0744DA84202D0734DA84213D14FF671
:101A5000F7752A404D892A434FF6FB752A408D8839
:101A60002A434FF6FF652B404FF6FF552B408D89DB
:101A70002B43CD892B4383800483CD8885860284C4
:101A800070BD70B5002400220023058C4FF6EF7660
:101A900035400584028C8388048B48F6FF752C4002
:101AA0004FF6FF452C400D884FF6FF7606EA0525D8
:101AB0002C434FF6DF752A400D8906EA05152A43A7
:101AC0004D8806EA05152A43444DA84202D0494DE7
:101AD000A8421DD14FF67F752A404D894FF6FF76FB
:101AE00006EA05152A434FF6BF752A408D8806EA97
:101AF00005152A434FF6FF352B404FF2FF752B405B
:101B00008D8906EA85052B43CD8906EA85052B4399
:101B100083800483CD880587028470BD70B500245E
:101B200000220023058C4FF6FF6635400584028CA9
:101B30008388848B4FF68F752C404FF6FC752C40B4
:101B40000D882C434FF6FF552A400D894FF6FF763E
:101B500006EA05252A434D8806EA05252A431F4D36
:101B6000A84202D0234DA8421DD14FF2FF752A4052
:101B70004D894FF6FF7606EA05252A434FF6FF35D5
:101B80002A408D8806EA05252A434EF6FF752B402C
:101B90004DF6FF752B408D8906EA05152B43CD893F
:101BA00006EA05152B4383808483CD8885870284CC
:101BB00070BD70B5002200230024058C4EF6FF7620
:101BC00035400584038C8488828B48F6FF752A4053
:101BD0004FF6FF452A400D8820E00000002C014010
:101BE0000004004000080040000C004000100040CD
:101BF0000014004000340140004C014000500140FE
:101C00000054014000180040001C0040002000402B
:101C10000040014000440140004801404FF6FF767B
:101C200006EA05252A434DF6FF752B400D8906EA85
:101C300005352B434D8806EA05352B43FA4DA8425E
:101C400002D0FA4DA84208D14BF6FF752C408D8981
:101C50004FF6FF7606EA85152C4384808283CD8873
:101C6000A0F84050038470BD828B4FF2FF331A40BE
:101C70008283828B4FF6FF7303EA01231A43828328
:101C80007047F0B50C461546002200210026078C4F
:101C90004EF6FF7C07EA0C070784828B018C4FF617
:101CA000FF7707EA043640F6FF473A404FF6FF77E2
:101CB00007EA05273A434FF6FF7707EA03373A4327
:101CC000D94FB8420ED0D94FB8420BD0B0F1804FA7
:101CD00008D0D74FB84205D0D64FB84202D0D64F21
:101CE000B84206D14DF6FF77394046F48057394364
:101CF00005E047F6FF57394044F480573943828363
:101D00000184F0BD828B4FF6F3731A408283828B7D
:101D10000A4382837047F0B50C4615460022002125
:101D20000026078C4FF6FF6C07EA0C070784828BAE
:101D3000018C4FF6FF7707EA04264FF60C773A40FE
:101D40004FF6FF7707EA03172F433A43B64FB842DF
:101D50000ED0B64FB8420BD0B0F1804F08D0B44F80
:101D6000B84205D0B34FB84202D0B34FB84206D103
:101D70004FF6FF57394046F48077394305E04FF27C
:101D8000FF57394044F48077394382830184F0BDA2
:101D9000028B4FF2FF331A400283028B4FF6FF7320
:101DA00003EA01231A4302837047F0B50C46154637
:101DB000002200210026078C4FF6EF7C07EA0C0773
:101DC0000784028B018C4FF6FF7707EA041640F672
:101DD000FF473A404FF6FF7707EA03373A434FF69B
:101DE000FF7707EA05273A438F4FB8420ED08F4F4F
:101DF000B8420BD0B0F1804F08D08D4FB84205D01B
:101E00008C4FB84202D08C4FB84206D14FF6DF77E4
:101E1000394046F01007394305E04FF65F77394007
:101E200044F01007394302830184F0BD028B4FF662
:101E3000F3731A400283028B0A4302837047F0B5A2
:101E40000C46154600220021068C4FF6FE773E40D8
:101E50000684028B018C4FF60C7632407E1C06EA1B
:101E600003162E433243704EB0420ED06F4EB04236
:101E70000BD0B0F1804F08D06D4EB04205D06D4E02
:101E8000B04202D06C4EB04206D14FF6FD763140E2
:101E900044F00106314305E04FF6F576314044F059
:101EA0000106314302830184F0BD70B505460C463E
:101EB0005D4885420ED05D4885420BD0B5F1804F1C
:101EC00008D05B48854205D05A48854202D05A481E
:101ED000854200D100E000BF208850B92389A28844
:101EE00061882846FFF7ABFFE1882846FFF79EFF91
:101EF00025E0208804280AD12389A2886188284601
:101F0000FFF753FFE1882846FFF742FF17E02088DC
:101F100008280AD12389A28861882846FFF7FBFE9A
:101F2000E1882846FFF7EEFE09E02389A288618850
:101F30002846FFF7A6FEE1882846FFF795FE70BD0C
:101F40002DE9F04105460C4600260127608808B9B6
:101F5000022600E00026A088012801D1022700E027
:101F600001272088A0B92389A28861882846FFF725
:101F700066FFE1882846FFF759FF23893A46314634
:101F80002846FFF712FFE1882846FFF701FF13E01C
:101F90002389A28861882846FFF707FFE188284641
:101FA000FFF7F6FE23893A4631462846FFF747FFFA
:101FB000E1882846FFF73AFFBDE8F0810A884B88A0
:101FC0001A438B881A43CB881A430B891A434B89CF
:101FD0001A438B891A43A0F8442070474FF6FF71CB
:101FE000818000210180C180418001727047002101
:101FF000018041808180C180018141818181C181D5
:102000007047002101804180012181800021C18031
:10201000018170470021018041808180C180018160
:102020004181818170470000002C01400034014053
:102030000004004000080040000C004021B102886C
:1020400042F00102028004E002884FF6FE731A405B
:102050000280704731B1B0F8442042F40042A0F849
:10206000442005E0B0F84420C2F30E02A0F844205A
:1020700070471AB183890B43838102E083898B43C4
:10208000838170478182704741EA0203A0F848309B
:1020900070471AB183890B43838102E083898B43A4
:1020A0008381704701894FF6F872114001817047B2
:1020B0000A46002101894FF68F73194011430181AF
:1020C000704730B504460D4629462046FFF7F0FF1D
:1020D000208940F00700208130BD2DE9F041044601
:1020E0000D4616461F46602D06D13B46012231465D
:1020F0002046FFF75AFE05E03B46012231462046C6
:10210000FFF79DFE29462046FFF7D2FF208940F0C9
:1021100007002081BDE8F08130B50C46002101891F
:10212000C9B24FF6FF7505EA032515432543294338
:10213000018130BD2DE9F04105460E46174698460F
:10214000002443463A4631462846FFF7E5FF2C89EE
:102150004FF6F870044044F007044FF68F700440C7
:1021600044F070042C81BDE8F081F0B504460D46C2
:1021700016461F463B46324629462046FFF7CCFF0F
:10218000208940F480402081F0BD01858282704723
:102190000A46002101884FF68F73194011430180D0
:1021A0007047F0B50C4615461E460021002200235C
:1021B0000189028B038C4FF6F877394021434FF6A3
:1021C000FC473A4040F201173A434FF6DD773B4077
:1021D0004FF6FF7707EA06172F433B43018102833F
:1021E0000384F0BD0A460021018B4FF68F7319401E
:1021F0001143018370470A460021018B48F6FF73A3
:1022000019404FF6FF7303EA022319430183704715
:102210000A460021818B4FF68F7319401143818349
:1022200070470A460021818B48F6FF7319404FF62C
:10223000FF7303EA022319438183704721B10288A7
:1022400042F08002028004E002884FF67F731A4059
:102250000280704721B1828842F00402828004E04B
:1022600082884FF6FB731A408280704721B18288C2
:1022700042F00802828004E082884FF6F7731A4029
:102280008280704721B1828842F00102828004E09E
:1022900082884FF6FE731A40828070470A460021FA
:1022A000018B4FF6F77319401143018370470A46BB
:1022B0000021018B4FF2FF7319404FF6FF7303EAC1
:1022C00002231943018370470A460021818B4FF690
:1022D000F77319401143818370470A460021818BAF
:1022E0004FF2FF7319404FF6FF7303EA02231943BD
:1022F000818370470A460021018B4FF6FB7319401A
:102300001143018370470A460021018B4FF6FF33CA
:1023100019404FF6FF7303EA022319430183704704
:102320000A460021818B4FF6FB73194011438183CC
:1023300070470A460021818B4FF6FF3319404FF654
:10234000FF7303EA02231943818370470A46002181
:10235000018B4FF67F7319401143018370470A4682
:102360000021018BC1F30E014FF6FF7303EA022334
:102370001943018370470A460021818B4FF67F7312
:1023800019401143818370470A460021818BC1F3B4
:102390000E014FF6FF7303EA02231943818370474E
:1023A0000A460021018C4FF6FD7319401143018448
:1023B00070470A460021018C4FF6F773194011430C
:1023C000018470470A460021018C4FF6DF731940E3
:1023D0004FF6FF7303EA02131943018470470A465C
:1023E0000021018C4FF67F7319404FF6FF7303EA0B
:1023F00002131943018470470A460021018C4FF6ED
:10240000FF5319404FF6FF7303EA02231943018477
:1024100070470A460021018C4FF2FF7319404FF6B6
:10242000FF7303EA02231943018470470A4600211F
:10243000018C4DF6FF7319404FF6FF7303EA023328
:1024400019430184704730B5002301248C40A3B2A6
:10245000048C9C430484048C02FA01F5ADB22C4335
:10246000048430BD30B5002304248C40A3B2048C16
:102470009C430484048C02FA01F5ADB22C4304841D
:1024800030BD70B5034600200024184618300125E1
:102490008D40ACB21D8CA5431D8409B1082909D11A
:1024A00000EB6100056825F07005056005681543BF
:1024B00005600EE00D1FC5F34E052844056825F4A0
:1024C000E045056005684FF6FF7606EA02263543CB
:1024D000056070BD21B1028842F00202028004E072
:1024E00002884FF6FD731A400280704721B10288BE
:1024F00042F00402028004E002884FF6FB731A40A7
:102500000280704721B1828842F08002828004E01C
:1025100082884FF67F731A408280704702884FF698
:10252000F7731A40028002880A430280704782884B
:102530004FF68F731A40828082880A4382807047E8
:1025400002894FF6F8731A40028102890A43028118
:10255000704702894FF67F731A40028102890A434D
:1025600002817047818470478185704781867047FA
:102570000187704781877047A0F840107047028834
:102580004FF6FF431A40028002880A4302807047D8
:102590000146888E70470146088F70470146888F34
:1025A00070470146B1F8400070470146888C70477B
:1025B0000146088D704702460020138A0B400BB17C
:1025C000012000E000207047CA430282704730B506
:1025D0000246002000230024158A05EA010395899C
:1025E00005EA010413B10CB1012000E0002030BD68
:1025F000CA430282704700004FF0E020006920F0DB
:1026000004004FF0E02108610920364908700846AF
:10261000007800EB4001C1EBC0104FF6FF7101EAFA
:10262000C000314908807047002120F07F402D4ACA
:10263000127842434FF0E0235A6100229A6101224E
:102640001A6100BF4FF0E022116901F001021AB1D6
:1026500001F48032002AF5D000224FF0E0231A6105
:102660009A617047002100B9704720F07F401E4AF0
:10267000128842434FF0E0235A6100229A610122FE
:102680001A6100BF4FF0E022116901F001021AB196
:1026900001F48032002AF5D000224FF0E0231A61C5
:1026A0009A6100BFE0E770B50446002600254FF4AC
:1026B000FA7094FBF0F0C6B24FF4FA7094FBF0F1AC
:1026C00000FB114085B205E04FF4FA70FFF7CAFF36
:1026D000701EC6B2002EF7D115B12846FFF7C2FF13
:1026E00070BD0000280000202A00002010B586B030
:1026F000044601210420FEF729FA01218803FEF790
:1027000025FA18208DF817004FF40070ADF814006A
:1027100003208DF8160005A96B48FDF75BFF042028
:102720008DF817000002ADF8140003208DF8160094
:1027300005A96548FDF74EFF01940020ADF8100093
:102740000C20ADF80E000020ADF80C00ADF80A002A
:10275000ADF8080001A95D48FEF79FFA01215B482A
:10276000FEF727FB012240F225515848FEF72DFBCA
:1027700025208DF8000001208DF8030000208DF841
:10278000010002208DF802006846FDF75AFE06B0EF
:1027900010BD10B586B0044601210420FEF7D6F91D
:1027A00001214804FEF7DFF918208DF817000420F6
:1027B000ADF8140003208DF8160005A94248FDF776
:1027C00009FF04208DF817000820ADF8140003203D
:1027D0008DF8160005A93C48FDF7FCFE0194002089
:1027E000ADF810000C20ADF80E000020ADF80C0084
:1027F000ADF80A00ADF8080001A93548FEF74DFA1A
:1028000001213348FEF7D5FA012240F22551304824
:10281000FEF7DBFA26208DF8000001208DF803007A
:1028200000208DF801008DF802006846FDF709FED2
:1028300006B010BD2DE9F04107460C4615460026AE
:102840000DE014F8011B3846FEF720FB00BF4021C5
:102850003846FEF789FB0028F9D0701C86B2AE42DC
:10286000EFDBBDE8F0810FB430B5CBB0054601AC6D
:1028700050A800904FF4947101A8009B4F9A07F064
:1028800051FB002000900BE014F8011B2846FEF7D6
:10289000FDFA00BF40212846FEF766FB0028F9D06C
:1028A00020780028F0D14BB030BC5DF814FB10B597
:1028B00040F225510548FEF76DFB18B12021034871
:1028C000FEF75FFB10BD000000080140003801402A
:1028D000004400401FB501210820FEF737F94FF4EE
:1028E0007040ADF80C0048208DF80F0003A9514846
:1028F000FDF770FE0C210120FDF782FF4FF48050A0
:10290000019000208DF808000C208DF809000120AE
:102910008DF80A0001A8FEF78FFB0D210120FDF7BD
:102920006FFF4FF40050019001A8FEF785FB0E21C8
:102930000120FDF765FF4FF48040019001A8FEF7EC
:102940007BFB0F210120FDF75BFF4FF4004001905E
:1029500001A8FEF771FB28208DF8000000208DF8FB
:1029600001008DF8020001208DF803006846FDF794
:1029700068FD1FBD10B50A20FFF774FE4FF48051AB
:102980002C48FDF7BAFE50B92B480078012803D136
:10299000002001F093FC02E0012001F08FFC4FF4D5
:1029A0008050FEF7C0FB4FF400512248FDF7A5FE12
:1029B00050B922480078012803D1002001F088FC9A
:1029C00002E0012001F084FC4FF40050FEF7ABFB65
:1029D0004FF480411748FDF790FE50B91848007831
:1029E000012803D1002001F07DFC02E0012001F06C
:1029F00079FC4FF48040FEF796FB4FF400410D4800
:102A0000FDF77BFE88B90F4800785A300D490870F1
:102A1000084600785A2801DD00200870094800782F
:102A200006F083FD044601F09FFE4FF40040FEF7E0
:102A30007AFB10BD000C01402F0000202E0000206A
:102A40002D0000202C00002038B5044654B14FF46E
:102A50000060ADF8000003208DF8020010208DF812
:102A6000030006E04FF40060ADF8000004208DF88C
:102A7000030069466448FDF7ADFD38BD10B501207F
:102A8000FFF7E2FF4FF400615F48FDF752FE1420AC
:102A9000FFF709FE4FF400615B48FDF748FE0D208B
:102AA000FFF7C2FD10BD10B500240020FFF7CCFFDA
:102AB00004E0601CC4B20120FFF7B6FD4FF40061D2
:102AC0005148FDF71AFE08B1642CF2DB642C01DBDF
:102AD000012010BD002404E0601CC4B20120FFF7F7
:102AE000A3FD4FF400614848FDF707FE08B9642CC8
:102AF000F2DB642C01DB0120EBE70020E9E710B5F5
:102B0000002404E0601CC4B20120FFF78DFD4FF4E7
:102B100000613D48FDF7F1FD08B1642CF2DB0024B3
:102B200004E0601CC4B20120FFF77EFD4FF4006199
:102B30003548FDF7E2FD08B9642CF2DB2820FFF7E9
:102B400073FD4FF400613048FDF7D7FD08B1012057
:102B500010BD0020FCE770B50024002506E06006EB
:102B6000040EFFF7CCFF0443681CC5B2082DF6DB4A
:102B7000204670BD7CB505460E46FFF77FFFFFF788
:102B800092FFF8B9002405E0FFF7E5FF0DF8040017
:102B9000601CC4B2052CF7DB9DF800009DF8011005
:102BA00008449DF8021008449DF8031008449DF85D
:102BB0000410884208D19DF8000030709DF8020092
:102BC000287001E001207CBD0020FCE708B5012150
:102BD0000820FDF7BBFF4FF40060ADF800001020A7
:102BE0008DF8030003208DF8020069460648FDF7C2
:102BF000F1FC4FF400610448FDF799FDFFF73EFF3B
:102C0000FFF751FF08BD0000000C014010B504465D
:102C100022464FF48071FE48FDF78DFD10BD10B5C2
:102C2000044622464FF40071F948FDF784FD10BDBB
:102C300038B5002406E0002500E06D1CB5F57A7F6C
:102C4000FBD3641CB4F57A7FF5D301210820FDF78E
:102C50007DFF14208DF8030003208DF802004FF44F
:102C60008070ADF800006946E948FDF7B3FC4FF409
:102C70000070ADF800006946E548FDF7ABFC0120A7
:102C8000FFF7C4FF0120FFF7CAFF38BD10B50120D0
:102C9000FFF7C5FF0120FFF7B9FF0020FFF7BFFFD7
:102CA0000020FFF7B3FF10BD10B50020FFF7B7FFFE
:102CB0000120FFF7ABFF0120FFF7B1FF10BD70B59A
:102CC0000546002411E080212141294009B101215C
:102CD00000E000210846FFF7A2FF0120FFF796FF62
:102CE0000020FFF793FF601CC4B2082CEBDB01202F
:102CF000FFF78CFF0020FFF789FF70BD10B5044679
:102D0000FFF7C4FF7820FFF7DAFF0020FFF7D7FFB7
:102D10002046FFF7D4FFFFF7C7FF10BD70B505468B
:102D20000E46FFF7B3FF7820FFF7C9FF4020FFF7FB
:102D3000C6FF002404E0285DFFF7C1FF601CC4B299
:102D4000B442F8DBFFF7B0FF70BD70B505460C4626
:102D500045F0B000FFF7D2FF102141EA1410FFF751
:102D6000CDFF04F00F00FFF7C9FF70BD10B50024C0
:102D70000BE000212046FFF7E8FFA64901EBC41055
:102D80008021FFF7CBFF601CC4B2082CF1DB10BD23
:102D900000200CE0002106E000229E4B03EBC01354
:102DA0005A544A1CD1B28029F6DB421CD0B2082802
:102DB000F0DB704710B5FFF73BFFAE20FFF79EFF3B
:102DC000D520FFF79BFF8020FFF798FFA820FFF793
:102DD00095FF3F20FFF792FFD320FFF78FFF0020E2
:102DE000FFF78CFF4020FFF789FFA120FFF786FF48
:102DF000C820FFF783FFDA20FFF780FF1220FFF7DC
:102E00007DFF8120FFF77AFFCF20FFF777FFD920E2
:102E1000FFF774FFF120FFF771FFDB20FFF76EFF74
:102E20003020FFF76BFFA420FFF768FFA620FFF715
:102E300065FF8D20FFF762FF1420FFF75FFFAF20D3
:102E4000FFF75CFFFFF7A4FFFFF790FF10BD10B581
:102E50000246012000E050430B1EA1F10101FAD10E
:102E600010BD2DE9F04305460C461F46079E4FF066
:102E7000000C00216B1E34E032F91100B04201DD7C
:102E8000012000E0002032F91380B04502DD4FF050
:102E9000010801E04FF0000840451FD034F913004D
:102EA00034F91180A0EB080032F91180A6EB080874
:102EB00000FB08F032F9138032F91190A8EB0908F1
:102EC00090FBF8F034F911804044B84206DDBCF1C3
:102ED000000F01D1012000E0002084460B46481C71
:102EE00001B2A942C8DB0CF0FF00BDE8F0832DE978
:102EF000FF4F87B08B4614469946079806F01AFB99
:102F000005460E46584606F015FB07462A46334648
:102F100007F04CFE404A414BCDE9000106F08DFA26
:102F200000223F4BCDE9020106F015FACDE904017C
:102F300006F04BFB0FFA80FA4C4507DAA2450BDB93
:102F4000CA4509DC01200BB0BDE8F08FA24501DACB
:102F5000CA4501DC0120F6E70020F4E72DE9F0473F
:102F600006460D46174698462846E91705EB517167
:102F7000C9100FFA81F905EB0801481EC11700EBD3
:102F80005171C910491C0FFA81FA002D07DAA9F115
:102F900001000FFA80F9AAF101000FFA80FA4C46FD
:102FA00014E0002E10DB7F2E0EDC002C0CDB072C37
:102FB0000ADCF1B2E0B2FFF7C8FE164901EBC4111A
:102FC00088193946FFF7AAFE601C04B25445E8DBB5
:102FD000BDE8F0872DE9F04304460D4616461F462E
:102FE000284644E022463DE0002A39DB7F2A37DCD0
:102FF000002835DB3F2833DC4FEAE07C00EB5C7CCB
:103000004FEAEC0CDFF80C8008EBCC1C0AE0000067
:10301000000C01406C0000201F85EB51B81E0940D8
:10302000008066401CF802C003464FEAE07800EBDF
:1030300058784FEAE808A0EBC8094FF0010808FAF1
:1030400009F82CEA080C01464FEAE07800EB5878C2
:103050004FEAE808DFF8209409EBC81808F802C026
:10306000511C0AB2A1199142BEDC411C08B2E919F7
:103070008142B7DCBDE8F083002011E000210BE0C5
:10308000FD4A02EBC012525C82F0FF02FA4B03EBE6
:10309000C0135A544A1CD1B28029F1DB421CD0B271
:1030A0000828EBDB70472DE9F04304460D46164631
:1030B0001F46284638E0224631E0002A2DDB7F2AD1
:1030C0002BDC002829DB3F2827DC4FEAE07C00EBE3
:1030D0005C7C4FEAEC0CDFF8A08308EBCC1C1CF8FE
:1030E00002C003464FEAE07800EB58784FEAE80860
:1030F000A0EBC8094FF0010808FA09F88CEA080C9F
:1031000001464FEAE07800EB58784FEAE808DFF82C
:10311000689309EBC81808F802C0511C0AB2A1193B
:103120009142CADC411C08B2E9198142C3DCBDE806
:10313000F0832DE9FF4F80460E469146DDF834B00E
:10314000002500244A4631464046039BFFF742FFD4
:1031500000BF5EE0002558E008EB0500002852DBC8
:1031600008EB05007F284EDC3046F11706EB517165
:10317000C9100FB2F11706EB5171C910A6EBC10AC5
:10318000002E05DA781E07B20AF108000FFA80FA5D
:103190003819002817DB3819072814DC3819B64904
:1031A00001EBC01008EB0501405C04FB09511BF862
:1031B000011001FA0AF108433919AF4A02EBC111B3
:1031C00008EB050288543819401C00281BDB38190D
:1031D000401C072817DC3819401CA74901EBC01018
:1031E00008EB0501405C04FB09511BF80110CAF112
:1031F0000802114108433919491C9F4A02EBC111C9
:1032000008EB05028854681CC5B24D45A4DB601C60
:10321000C4B20399481EC11700EB5171012202EBA1
:10322000E101A14296DCBDE8FF8FF8B506460F46E6
:1032300014461D46082D0CD1A4F120008F4901EB46
:10324000001010230822394600903046FFF771FF26
:103250000FE0062D0DD1A4F1200000EB40008849BD
:1032600001EB400008230622394600903046FFF764
:1032700060FFF8BD2DE9FE4F07468A461446984682
:103280000025AB46002672E0605D00F0800058B972
:103290004FF0010B2846691C8DB2205C8DF80400AC
:1032A00000208DF8050013E04FF0020B2846691C42
:1032B0008DB2205C8DF80400605D00B95AE02846AC
:1032C000691C8DB2205C8DF8050000208DF8060089
:1032D000BBF1010F0BD19DF80420B91908B2434688
:1032E0005146FFF7A2FF06EB080086B23FE04FF021
:1032F00000090EE0C9EBC90101EB8101614A8818A0
:1033000001A905F04CFD00B90EE009F101001FFA1A
:1033100080F9C9EBC90101EB81015A4A88185AA109
:1033200005F03DFD0028E5D100BFB8F1080F12D12E
:10333000C9EBC90000EB800052490844C01CB91910
:10334000009008B210231A465146FFF7F2FE06F12C
:10335000100086B20BE0B8F1060F08D1B91908B217
:1033600006233F225146FFF760FFB01D86B2605D25
:10337000002889D100BFBDE8FE8F2DE9F047064641
:10338000894617461D46DDF82080002417E0281BDB
:10339000411E0A20FFF75BFDB7FBF0F00A21B0FBEE
:1033A000F1F201FB120000F1300A04FB086108B2DF
:1033B000434652464946FFF738FF601CC4B2AC4250
:1033C000E5DBBDE8F0872DE9F04F80468A461546DB
:1033D0001E46DDF82490002D07DB4B462B2251467C
:1033E0004046FFF722FF2F4606E04B462D2251466E
:1033F0004046FFF71AFF6F42002418E0301B411EC1
:103400000A20FFF724FDB7FBF0F00A21B0FBF1F230
:1034100001FB120000F1300B611C01FB098108B2B5
:103420004B465A465146FFF700FF601CC4B2B442F7
:10343000E4DBBDE8F08F2DE9F04706468A46914669
:103440001F46DDF8208000242CE0381B411E102090
:10345000FFF7FDFCB9FBF0F000F00F050A2D15DABF
:1034600005F13001CAB204FB086108B24346514677
:10347000FFF7DBFE14E000006C0000207CB90008C0
:103480006CBF0008A6C100080000000005F137016C
:10349000CAB204FB086108B243465146FFF7C5FEB5
:1034A000601CC4B2BC42D0DBBDE8F0872DE9F04718
:1034B0000646894617461D46DDF82080002414E0A4
:1034C000281B411E0220FFF7C2FCB7FBF0F000F002
:1034D000010000F1300A04FB086108B2434652467D
:1034E0004946FFF7A2FE601CC4B2AC42E8DBBDE86F
:1034F000F0872DE9FF5F86B0074614461D46DDF8CC
:103500005080169E002213462046294606F0C0F839
:1035100006D833462B2238460799FFF786FE07E088
:1035200033462D2238460799FFF77FFE85F0004588
:103530002046294606F068F88246504606F00BF809
:1035400022462B46CDE9040105F002FF04460D4654
:103550000A201599FFF77BFC8146484605F0FBFFE2
:1035600022462B46CDE9000105F0F5FECDE902012A
:1035700008F094F9CDE9040106F046F88346BBFB58
:10358000F9F08244B91908B24346524600960799A9
:10359000FFF7F3FE08F1010101FB067108B23346A3
:1035A0002E220799FFF741FE08F1020101FB067187
:1035B00008B200965A46159B0799FFF7DEFE0AB03F
:1035C000BDE8F09F0FB470B5C2B005460E46144674
:1035D0004AA8019002A8019A499906F0B9FC002076
:1035E0000190234602AA31462846FFF743FE42B027
:1035F00070BC5DF814FB70B50346002B20DB7F2BFD
:103600001EDC00291CDB3F291ADCCC1701EB5474AB
:10361000E410F74D05EBC414E45C0A46CD1701EB4A
:103620005575ED10A1EBC5060125B5402C430846A4
:10363000CD1701EB5575ED10ED4E06EBC515EC54AD
:1036400070BD70B50246002A19DB7F2A17DC0029FD
:1036500015DB3F2913DCCC1701EB5474E410E44D67
:1036600005EBC414A45CCD1701EB5575ED10A1EB6F
:10367000C5060125B5402C400CB1012070BD0020CD
:10368000FCE72DE9FF4F86B0069E079CDDF8208001
:10369000DDF824900020019000904C450FD1464564
:1036A00002DDB2464646D046354605E0214628466C
:1036B000FFF7A1FF681C05B24545F7DD99E04645D7
:1036C0000FD14C4502DDA2464C46D146274605E0C7
:1036D00039463046FFF78FFF781C07B24F45F7DDBC
:1036E00087E0464505DDB2464646D046A2464C46F2
:1036F000D1464C4507DD604204B2C9F100000FFA23
:1037000080F901200190A9EB0400A8EB0601884292
:1037100007DDB24626465446C246C846D146012079
:103720000090A8EB060000B20590A9EB04000FFA88
:1037300080FB4FEA4B0000B203900598ABEB000012
:10374000400000B202900598C0EB4B0000B204901C
:1037500035462746019838B1009828B1684201B231
:103760003846FFF748FF12E0019828B1784201B2CD
:103770002846FFF740FF0AE0009820B12946384666
:10378000FFF739FF03E039462846FFF734FF2EE004
:10379000681C05B20498002805DADDE90310084426
:1037A00000B2049006E0781C07B20299049808441D
:1037B00000B20490019838B1009828B1684201B273
:1037C0003846FFF718FF12E0019828B1784201B29D
:1037D0002846FFF710FF0AE0009820B12946384636
:1037E000FFF709FF03E039462846FFF704FF454588
:1037F000CEDB0AB0BDE8F08F2DE9F04705460E4656
:1038000017469846DDF820A0BAF1000F24D12C46C7
:103810000CE031462046FFF7EEFE06EB0800401EA6
:1038200001B22046FFF7E7FE601C04B2E819A0428F
:10383000EFDC34460BE021462846FFF7DCFEE919B1
:10384000491E08B22146FFF7D6FE601C04B206EB03
:103850000800A042EFDC14E02C460FE0B14607E080
:1038600049462046FFF7C7FE09F101000FFA80F92B
:1038700006EB08004845F3DC601C04B2E819A042DE
:10388000ECDCBDE8F0872DE9FF4F87B014461D46FC
:10389000DDE91467DDF81C80DDF82090DDF81C8080
:1038A000CDF81880DDF82090CB46DDF81C80ADF80F
:1038B0000C80ADF80E40ADF81060DDF82090ADF84A
:1038C0000490ADF80650ADF80870169890B92B46E4
:1038D0002246DDE90701FFF7D4FE3B463246DDE92B
:1038E0000701FFF7CEFE3B46324629462046FFF74A
:1038F000C8FE39E0444500DAA046464500DAB04645
:103900004D4500DAA9464F4500DAB946069884428B
:1039100000DD06940698864200DD06965D4500DDD2
:10392000AB465F4500DDBB46C2461AE0CDF81490B9
:1039300010E00598534601AA03A900900320FFF761
:1039400090FA18B150460599FFF755FE0598401CAE
:1039500000B2059005985845EBDD0AF101000FFA19
:1039600080FA06988245E1DD0BB0BDE8F08F2DE9C5
:10397000F04F07460E4691469A46C9F1010B0025C5
:103980004C46321911B27A1910B2FFF734FE321BCD
:1039900011B27A1B10B2FFF72EFE721911B23A194A
:1039A00010B2FFF728FE721B11B23A1B10B2FFF7DC
:1039B00022FEBAF1000F0FD060420FFA80F809E042
:1039C00006EB080001B23846FFF715FE08F10100CA
:1039D0000FFA80F8A045F3DB77E0681C05B2BBF175
:1039E000000F07DA6800401C58440FFA80FB09E01A
:1039F0006C000020601E04B2281B4000401C58448C
:103A00000FFA80FB321911B27A1910B2FFF7F3FDE9
:103A1000721911B23A1910B2FFF7EDFD321B11B253
:103A20007A1B10B2FFF7E7FD721B11B23A1B10B2FE
:103A3000FFF7E1FD321B11B27A1910B2FFF7DBFD7F
:103A4000721B11B23A1910B2FFF7D5FD321911B23B
:103A50007A1B10B2FFF7CFFD721911B23A1B10B2E8
:103A6000FFF7C9FDBAF1000F2FD060420FFA80F8BE
:103A700011E006EB080211B27A1910B2FFF7BBFD94
:103A800006EB080211B27A1B10B2FFF7B4FD08F181
:103A900001000FFA80F8A045EBDB68420FFA80F8CE
:103AA00011E006EB080211B23A1B10B2FFF7A3FDBA
:103AB00006EB080211B23A1910B2FFF79CFD08F1AB
:103AC00001000FFA80F8A845EBDBA54285DBBDE8D5
:103AD000F08F2DE9FF4F97B007460E469B46DDF865
:103AE00064A0D94600254C46C9F1000005F022FD2E
:103AF0000022FE4BCDE9080105F086FBCDE90C0163
:103B00000AFB0AF005F016FDCDE90A01DDE90C23F8
:103B100005F021FCCDE9100109FB09F005F00AFDD3
:103B2000CDE90E01DDE9102305F06EFBCDE91201B0
:103B300005F0C6FD15902498A8B160420FFA80F8F0
:103B40000FE006EB080001B23846FFF754FD06EB24
:103B5000080001B23846FFF74EFD08F101000FFAE8
:103B600080F8A045EDDB321911B27A1910B2FFF7D7
:103B700042FD321B11B27A1B10B2FFF73CFD321925
:103B800011B27A1B10B2FFF736FD321B11B27A194F
:103B900010B2FFF730FD5BE00021159805F0ACFD99
:103BA0000DD809FB09F16A00D21C01FB02F005F0F7
:103BB000B3FC1390159905F05FFA159014E009FB1A
:103BC00009F16A00D21C51430AFB0AF26300C3F1F7
:103BD000020302FB031005F09FFC1390159905F0FA
:103BE0004BFA1590601E04B2681C05B22498B8B157
:103BF00060420FFA80F811E006EB080211B27A1960
:103C000010B2FFF7F8FC06EB080211B27A1B10B2F3
:103C1000FFF7F1FC08F101000FFA80F8A045EBDB9B
:103C2000321911B27A1910B2FFF7E5FC321B11B24A
:103C30007A1B10B2FFF7DFFC321911B27A1B10B2F7
:103C4000FFF7D9FC321B11B27A1910B2FFF7D3FC7F
:103C5000204605F06FFC0022A44BCDE90A0105F0D7
:103C600074FBCDE90E010AFB0AF005F063FCCDE917
:103C70000C01DDE90E2305F06EFBCDE9120109FB15
:103C800009F16A1C01FB02F005F054FCCDE91001BA
:103C9000DDE9122305F0E4FCFFF47EAF0AFB0AF134
:103CA00001FB09F101FB09F005F044FCCDE910012D
:103CB0000AFB0AF1621E514301FB02F005F03AFCD7
:103CC000CDE90C01284605F035FC0022874BCDE9F3
:103CD000040105F099FACDE90801284605F02AFC0F
:103CE0000022824BCDE9000105F08EFACDE90401F6
:103CF00009FB09F005F01EFCCDE90201DDE9042312
:103D000005F029FBCDE90601DDE9082305F023FBD9
:103D1000CDE90A01DDE90C2305F076FACDE90E01C3
:103D2000DDE9102305F011FBCDE9120105F0C8FC17
:103D300014905CE00021149805F0DEFC15D809FB16
:103D400009F16A00921C51430AFB0AF26300C3F1B5
:103D5000030302FB031005F0DFFB1390149905F039
:103D60008BF91490681C05B20DE00AFB0AF16200A1
:103D7000C2F1030201FB02F005F0CEFB139014998F
:103D800005F07AF91490601E04B22498B8B160422C
:103D90000FFA80F811E006EB080211B27A1910B29E
:103DA000FFF729FC06EB080211B27A1B10B2FFF7ED
:103DB00022FC08F101000FFA80F8A045EBDB321974
:103DC00011B27A1910B2FFF716FC321B11B27A1B2E
:103DD00010B2FFF710FC321911B27A1B10B2FFF7C4
:103DE0000AFC321B11B27A1910B2FFF704FC002C46
:103DF000A0DC1BB0BDE8F08F2DE9F05F07460E4652
:103E000091469B46C9F1010A00254C465A46214677
:103E100028460A9BFFF76BF828B1321911B27A19BC
:103E200010B2FFF7E8FB5A46604201B2684200B2A6
:103E30000A9BFFF75CF828B1321B11B27A1B10B253
:103E4000FFF7D9FB5A46294620460A9BFFF74FF851
:103E500028B1721911B23A1910B2FFF7CCFB5A46C9
:103E6000684201B2604200B20A9BFFF740F828B1F5
:103E7000721B11B23A1B10B2FFF7BDFB0B98B0B129
:103E800060420FFA80F810E05A46414600200A9B33
:103E9000FFF72DF828B106EB080001B23846FFF70E
:103EA000AAFB08F101000FFA80F8A045ECDBD6E090
:103EB000681C05B2BAF1000F05DA6800401C5044D6
:103EC0000FFA80FA07E0601E04B2281B4000401C75
:103ED00050440FFA80FA5A46214628460A9BFFF7BB
:103EE00006F840B1321911B27A1901E00000E03F42
:103EF00010B2FFF780FB5A46294620460A9BFEF780
:103F0000F6FF28B1721911B23A1910B2FFF773FB1C
:103F10005A46604201B2684200B20A9BFEF7E7FFD0
:103F200028B1321B11B27A1B10B2FFF764FB5A465C
:103F3000684201B2604200B20A9BFEF7D8FF28B186
:103F4000721B11B23A1B10B2FFF755FB5A46604282
:103F500001B228460A9BFEF7CAFF28B1321B11B2F4
:103F60007A1910B2FFF747FB5A46684201B2204661
:103F70000A9BFEF7BCFF28B1721B11B23A1910B2AE
:103F8000FFF739FB5A462146684200B20A9BFEF70A
:103F9000AEFF28B1321911B27A1B10B2FFF72BFB1A
:103FA0005A462946604200B20A9BFEF7A0FF28B19C
:103FB000721911B23A1B10B2FFF71DFB0B980028C3
:103FC0004DD060420FFA80F820E05A46414628461C
:103FD0000A9BFEF78CFF30B106EB080211B27A198A
:103FE00010B2FFF708FB5A464146684200B20A9BEE
:103FF000FEF77DFF30B106EB080211B27A1B10B25A
:10400000FFF7F9FA08F101000FFA80F8A045DCDBB0
:1040100068420FFA80F820E05A464146604200B2FA
:104020000A9BFEF764FF30B106EB080211B23A1B9F
:1040300010B2FFF7E0FA5A46414620460A9BFEF7C7
:1040400056FF30B106EB080211B23A1910B2FFF771
:10405000D2FA08F101000FFA80F8A845DCDBA5428E
:10406000FFF626AFBDE8F09F38B5044601210820D1
:10407000FCF76CFD4CB10220ADF8000003208DF878
:10408000020010208DF8030005E00220ADF80000CA
:1040900004208DF8030069468648FCF79BFA38BD7A
:1040A00010B50120FFF7E0FF02218248FCF741FB39
:1040B00040F2EE20FEF7B8FA02217E48FCF737FB0B
:1040C0000F20FEF7B1FA10BD10B500240020FFF755
:1040D000CBFF04E0601CC4B20120FEF7A5FA022168
:1040E0007448FCF70AFB08B1C82CF3DBC82C01DBD1
:1040F000012010BD002404E0601CC4B20120FEF7C2
:1041000093FA02216B48FCF7F8FA08B9F02CF3DBBC
:10411000F02C01DB0120ECE70020EAE710B50120DC
:10412000FFF7A2FF02216348FCF703FB0220FEF722
:104130007BFA02215F48FCF7FAFA0020FFF794FFB0
:104140000C20FEF771FA02215A48FCF7D6FA08B1A2
:10415000012400E000243220FEF766FA204610BD5C
:1041600070B50026012508E0FFF7D8FF0446E001FE
:1041700040EA6600C6B2681CC5B2082DF4DD3046C0
:1041800070BD70B504460120FFF76EFF012522E0E7
:1041900004F00106641076B102214648FCF7C9FA22
:1041A0000220FEF741FA02214248FCF7C0FA3C2007
:1041B000FEF73AFA0DE002213E48FCF7BAFA3C203D
:1041C000FEF732FA02213B48FCF7B1FA0220FEF773
:1041D0002BFA681CC5B2082DDADD70BD10B5FFF7EB
:1041E0005FFFFFF771FFCC20FFF7CBFF4420FFF705
:1041F000C8FF10BD08B501210820FCF7A7FC02206C
:10420000ADF8000010208DF8030003208DF80200A7
:1042100069462848FCF7DEF902212648FCF787FAB0
:10422000FFF73EFFFFF750FF08BD2DE9F84FFFF7FE
:10423000D5FFFFF735FFFFF747FFCC20FFF7A1FFC2
:10424000BE20FFF79EFFFFF78BFF8346FFF788FF37
:104250000446072C08DDE043C4B26FEA0B0000F00F
:10426000FF0B4FF0000A01E04FF0010AA1464FEAB0
:1042700009200FFA80F909EB0B000FFA80F9484684
:1042800005F04AF9009005F0D8F9074600220A4BDC
:1042900005F061F8054605F098F90FFA80F9BAF1D2
:1042A000000F02D04846BDE8F88FC9F1000000B207
:1042B000F9E70000000C01400000E43F10B504469F
:1042C000224680211A48FCF736FA1A48047010BDBD
:1042D00010B50446224640211548FCF72CFA164832
:1042E000047010BD10B50446224620211048FCF78A
:1042F00022FA1248047010BD08B501210520FCF710
:1043000025FC10208DF80300E020ADF8000003200C
:104310008DF8020069460648FCF75CF90020FFF7BB
:10432000E1FF0020FFF7D4FF0020FFF7C7FF08BD23
:10433000000801402F0000202E0000202D0000204A
:1043400000B591B001214802FCF700FC01210420D6
:10435000FCF7FCFB01210846FCF7EBFB4FF40040A7
:10436000FCF758FB00208DF843000320ADF8400017
:104370008DF8420010A93148FCF72CF905230122E1
:1043800000212F48FCF797FF0523022201212C482A
:10439000FCF791FF00200B900E904FF460200D90E1
:1043A00001208DF831008DF8300002208DF83C009E
:1043B0000BA92348FCF7E7FE21484C3000908015FC
:1043C0000690002004901F4801904FF480600790F1
:1043D0008020059000200290022003902020089069
:1043E00000200A904FF48050099069461648FDF766
:1043F0006DF901211448FDF794F901211048FCF7EB
:10440000F9FE01210E48FCF7EAFE0D48FCF709FF12
:1044100000BF0B48FCF70AFF0128FAD00848FCF758
:104420000FFF00BF0648FCF710FF0128FAD001215A
:104430000348FCF714FF11B000BD00000008014064
:104440000024014030000020080002402DE9F04F18
:1044500093B001270DE05649088805F066F88046BC
:10446000294604F009FE05460520FEF7FBF8781CF6
:10447000C7B2142FEFDB4F49284604F087FE0546EC
:10448000FFF7D3FE804605F047F807464A4904F097
:104490007DFE4A490860084606684949304604F0EE
:1044A0003DFE834605F0C9F8464A474BCDE90E016B
:1044B00004F051FF0022454BCDE9100104F0A4FEA9
:1044C000074605F0FDF88146484605F0B6F8CDE907
:1044D0000E01284605F0B1F800223D4BCDE90A0156
:1044E00004F0ABFF07464FF066323A4B04F033FF5F
:1044F000CDE90C01DDE90E2304F02DFFCDE910011B
:1045000005F0DEF88246504605F097F807464FF072
:104510003332314B04F01FFFCDE90E01504605F058
:104520008CF807468846504605F087F82B4A2C4BF6
:10453000CDE9040104F00FFF3A464346CDE90601F8
:1045400004F009FFCDE90A01504605F076F8CDE9FF
:104550000601504605F071F8CDE90201504605F01C
:104560006CF8204A204BCDE9000104F0F4FE074628
:10457000DDE9022304F0EFFECDE90401DDE90623C5
:1045800004F0E9FECDE90801DDE90A2304F0DDFECF
:10459000CDE90C01DDE90E2304F036FECDE9100172
:1045A00005F08EF80446204613B0BDE8F08F0000F9
:1045B000300000200000A041000020413800002011
:1045C0000000C8417B14AE47E17A943F0000F03F01
:1045D00000FEAF4066660A4033CB7A40EC51B81E0D
:1045E00085FB5F403D0AD7A370AD50402DE9FC47E5
:1045F0004FF0000800260DE02649488804F095FF9A
:104600000746414604F038FD80460520FEF72AF8AB
:10461000701CC6B2142EEFDB1F49404604F0B6FDF5
:104620008046404605F009F8814600221B4B04F005
:1046300004FF06464FF06632194B04F08CFECDE9BC
:10464000000105F03DF80546284604F0F6FF064651
:10465000144A154B04F07FFE8146144A144B04F0B3
:10466000D3FDCDE9000105F02BF8044600212046DA
:1046700005F042F800D20024204604F0DEFF064692
:1046800000220C4B05F004F800D20B4C2046BDE88C
:10469000FC870000300000200000A04100FEAF4079
:1046A00066660A40287E8CB96B8916C07D3F355EF0
:1046B000BA69304000002C400000604100B589B06C
:1046C00001210220FCF74FFA01210820FCF73EFAF5
:1046D00018208DF823000120ADF8200003208DF86C
:1046E000220008A91C48FBF775FF1C48FDF7DAFCFF
:1046F0000020ADF81A00ADF8160044F61F60ADF8C2
:1047000018004720ADF8140000208DF81C0005A902
:104710001248FDF737F901A8FDF769FC6020ADF8F4
:1047200004000020ADF80C000120ADF806000020C8
:10473000ADF80A0001A90948FDF7F0F90121074881
:10474000FDF77CFC09B000BD10B5044621460348C6
:10475000FDF710FF10BD0000000C014000040040F8
:1047600010B5FFF7ABFF10BD2DE9F041054610492C
:10477000284604F0CBFF00D20D4D0021284604F05E
:10478000BBFF00D200250A49284604F0FFFC804602
:10479000084904F0C9FC0746074904F06DFC0646C9
:1047A00004F0FFFE84B22046FFF7CEFFBDE8F081A3
:1047B000000034430000FA440000FA4308B5012128
:1047C0000420FCF7C3F910208DF80300ADF80000B9
:1047D00003208DF8020069461548FBF7FBFE08BD73
:1047E00010B510211248FBF7A2FF10BD10B5102123
:1047F0000F48FBF79EFF10BD70B50E48006804F02F
:104800001CFF044600220C4B04F02AFF09D909487A
:10481000006804F012FF04460022084B04F038FF41
:1048200002D8FFF7DDFF01E0FFF7E0FF70BD0000F9
:10483000000801403C0000200000244000003E40F1
:1048400008B5FEF7A5FA0A2090A3082200210090DF
:104850000846FEF7B7FE0A208EA30822102100901A
:104860000020FEF7AFFE0A208CA308222021009032
:104870000020FEF7A7FE0A208AA30822302100901C
:104880000020FEF79FFEFEF771FA08BD10B54FF449
:10489000A060FBF7D1FDFDF7AFFE4FF4E130FDF76F
:1048A00025FF4FF4E130FDF774FFFFF725FDFFF71B
:1048B00057FFFEF70FF8FEF77DFAFFF79BFC50B1AC
:1048C0007AA18048FDF7CFFF08237FA20021084688
:1048D000FEF7D0FC03E080A17A48FDF7C4FFFEF7A5
:1048E00075F970B181A17748FDF7BDFF082385A256
:1048F00010210020FEF7BEFC4FF47A70FDF7D3FEC6
:1049000003E083A16F48FDF7AEFFFFF719FDFFF746
:1049100055FF84A16B48FDF7A6FFFEF739FA08237F
:1049200085A200210846FEF7A5FCFEF71FFA4FF40A
:104930007A70FDF7B8FEFFF783FF10BD7CB5FEF778
:1049400027FA824810231A46002100907020FEF7B3
:10495000F0FB7F48006804F070FE7EA30822CDE9DA
:10496000000100210846FEF72DFE7D48006804F096
:1049700064FE7CA30822CDE9000110210020FEF78F
:1049800021FE7C48006804F058FE7BA30822CDE994
:10499000000120210020FEF715FE7B4800787BA354
:1049A0000822302100900020FEF70CFEFEF7DEF911
:1049B0007CBD00250024FFF769FF02F035FB76A1DE
:1049C0004048FDF750FF06237AA200210846FEF773
:1049D00051FCFEF7CBF903E04FF4FA70FDF742FE0D
:1049E0007AA17CA002F0C1FA0028F5D185A1354852
:1049F000FDF739FF06238BA216210020FEF73AFCB3
:104A0000FEF7B4F903E04FF4FA70FDF72BFE00F067
:104A10009CFA0028F7D1FEF7BBF900F091FD33E0D6
:104A2000681C80B20546C82823DBFFF7FEFB07465B
:104A300004F072FD0646834904F0A8FB4D49086066
:104A400051498148FEF796F8FFF700FD4449086098
:104A5000FFF7CCFD3E490860FFF7CEFEFFF76EFF83
:104A60007AA11848FDF7FFFE00F005FD002502F0D1
:104A70005DFA002002F0B6FA044614B1204600F0B8
:104A80008AFD0A20FDF7EEFDCAE700005048A3BAF0
:104A900000000000544453A3BA000000CBAECEC2C5
:104AA000A3BA2000CAAAB6C8A3BA2000445331381A
:104AB00042323020496E6974204661696C65642118
:104AC0000D0A000000380140445331384232302092
:104AD0004572726F72000000445331384232302008
:104AE000496E6974204F4B210D0A0000444854312F
:104AF0003120496E6974204661696C6564210D0A34
:104B0000000000004448543131204572726F720039
:104B1000444854313120496E6974204F4B210D0AAD
:104B20000000000020486172647761726520696E40
:104B30006974204F4B0D0A00486172647761726599
:104B400020696E6974204F4B0000000054C50008B6
:104B50004400002050483A25342E326620000000E0
:104B600040000020CBAED6CA3A252E3066205050E9
:104B70004D0000003C000020CBAECEC23A25332EC3
:104B8000316620432020000048000020CAAAB6C891
:104B90003A25642525000000436F6E6E656374201E
:104BA0004D51545473205365727665722E2E2E0D1E
:104BB0000A000000436F6E6E656374204D515454BB
:104BC00073205365727665722E2E2E00434F4E4E23
:104BD0004543540041542B43495053544152543D92
:104BE00022544350222C226D717474732E686563B5
:104BF0006C6F7564732E636F6D222C313838330DF2
:104C00000A000000436F6E6E656374204D5154546A
:104C10002053657276657220537563636573730DF7
:104C20000A000000436F6E6E656374204D5154544A
:104C30002053657276657220537563636573732EB6
:104C40002E2E000000002041490000204F6E654ECE
:104C500065745F53656E64446174610D0A00000001
:104C6000F0B58BB0054600260024284604F090F8E5
:104C7000C7B20DB11C2F02DA01200BB0F0BD06E067
:104C8000A85D01A988550020A855701CC6B2BE4277
:104C9000F6DB002001A988550026002455E001A874
:104CA000805D2B2810D008DC202814D023282ED09B
:104CB000252825D026283FD130E02F2812D03D28A6
:104CC00033D03F2838D114E02819FEA104F038F879
:104CD000E01CC4B236E02819FBA104F031F8E01C56
:104CE000C4B22FE02819F9A104F02AF8E01CC4B2DC
:104CF00028E02819F6A104F023F8E01CC4B221E052
:104D00002819F4A104F01CF8E01CC4B21AE0281918
:104D1000F1A104F015F8E01CC4B213E02819EFA1CA
:104D200004F00EF8E01CC4B20CE02819ECA104F069
:104D300007F8E01CC4B205E001A8805D2855601C9E
:104D4000C4B200BF00BF701CC6B2BE42A7DB0020C9
:104D5000285500BF91E72DE9F04FC9B005460C4634
:104D600016461F460DF5A47898E8000F00204890DD
:104D700055B14CB1DB48864206D32FB1B9F1000FD3
:104D800002D0BAF1780F03DA012049B0BDE8F08F04
:104D9000402118A803F0C9FF384603F0F9FF059039
:104DA0003B4648AA4021009018A801F003F9482189
:104DB00006A803F0BAFFBBF1000F09D0CAA0334622
:104DC000CBA248218DE8310006A805F07FF809E064
:104DD000C5A03346CCA248218DE81101039506A851
:104DE00005F074F8402128A803F09FFF06A803F0FF
:104DF000CFFF059018A803F0CBFF049028A80090DF
:104E000006AA18A8DDE9041300F08EFF00204890E0
:104E1000402138A803F089FF28A803F0B9FF0590C6
:104E200028AB48AA4021009038A801F023F838A800
:104E3000FFF716FFBBF1000F0CD038A8AAA12B4634
:104E4000B9A2CDE90046CDE902105146484605F029
:104E50003DF80CE038A8A4A12B46C14ACDE9018653
:104E60000094CDE903105146484605F02FF8002084
:104E70008BE72DE9F041ACB001270E250026002478
:104E800005F1F00005F0E8FF06461EB938462CB0E3
:104E9000BDE8F08103E04FF4FA70FDF7E3FBB1A148
:104EA000B2A002F062F80028F5D10120902108AAF2
:104EB0000023CDE90032CDE90210B6A3C14AC2A158
:104EC000C4A0FFF748FFC6A10E20CDE9000105F1FF
:104ED000F00108ABC34A304604F0F8FF304603F057
:104EE00057FF1FFA80F84146304602F064F8FA2076
:104EF00002F078F8044624B1BBA1204603F02CFF51
:104F00000446CCB100200390BA4803A904ABBA4AC6
:104F1000CDE90010B949204603F07CFF04280AD1EE
:104F2000B448039904ABB44ACDE90010B4A1BC481D
:104F3000FDF799FC002700BF304605F065FFB9A1D9
:104F4000B9A002F012F83846A1E730B5B3B000209E
:104F50002F903090319032900125A02107AAA0A374
:104F6000CDE90032CDE902108AA3964A96A199A014
:104F7000FFF7F1FE07A894A399A2AFA10090A8485B
:104F8000FDF771FC2FA8002102910391CDE90410D7
:104F9000084601210B0292A2CDE9001007A98AA0C0
:104FA00001F069F9002842D1309A91B22F9802F0AD
:104FB00002F8FA2002F016F80446002C33D02046FE
:104FC00001F024F902282ED1204601F0B9FA062872
:104FD00023D2DFE800F003090E13181DA2A19048A8
:104FE000FDF741FC00251DE0A4A18D48FDF73BFC29
:104FF00018E0A9A18A48FDF736FC13E0AFA1884864
:10500000FDF731FC0EE0B5A18548FDF72CFC09E069
:10501000BBA18348FDF727FC04E0C4A18048FDF74D
:1050200022FC00BF00BF2FA801F0A8F803E0C6A132
:105030007B48FDF718FC284633B030BDF0B591B081
:1050400004464FF48071204603F06FFEC748008885
:10505000401C80B2C54908800346C5A24FF4807148
:10506000204604F033FFC848006804F0E6FA05461D
:105070002A460B46C5A101A804F040FF01A920461D
:1050800003F05EFEC748006804F072FA05462A463F
:10509000C5A101A804F032FF01A9204603F050FE8B
:1050A000C648006804F0C9FA05462A460B46C4A162
:1050B00001A804F023FF01A9204603F041FEC948DE
:1050C000007891E125324200253230002532460039
:1050D000253346002532350025323300253236008F
:1050E000253344009554415D736861310000000030
:1050F00025640A25730A70726F64756374732F25B3
:10510000730A25730000000025640A25730A707273
:105110006F64756374732F25732F64657669636597
:10512000732F25730A25730076657273696F6E3D60
:105130002573267265733D70726F64756374732591
:1051400025324625732665743D2564266D65746891
:105150006F643D2573267369676E3D2573000000FB
:10516000F4C70008434F4E4E4543540041542B436F
:10517000495053544152543D22544350222C223121
:1051800038332E3233302E34302E3333222C383015
:105190000D0A00006155684D544856494D6A4A4A07
:1051A00055554A554D6D7071646A64456445597A28
:1051B0006348685362445655536A6378516A673D41
:1051C0000000000000CF9D746D4D434B36554A746E
:1051D00063550000323031382D31302D333100002D
:1051E000594731003CC800086465766963655F69AA
:1051F000640000007C0400206C040020A8C70008A4
:10520000637265617465206465766963653A20251B
:10521000732C2025732C2025642C2025730D0A0067
:10522000003801404F4B000041542B434950434C40
:105230004F53450D0A0000004F6E654E45545F44C4
:1052400065764C696E6B0D0A4E414D453A202573CB
:105250002C0950524F49443A2025732C094B45598B
:105260003A25730D0A000000546970733A09C1AC05
:10527000BDD3B3C9B9A60D0A000000005741524E74
:105280003A09C1ACBDD3CAA7B0DCA3BAD0ADD2E94C
:10529000B4EDCEF30D0A00005741524E3A09C1ACAD
:1052A000BDD3CAA7B0DCA3BAB7C7B7A8B5C4636CEF
:1052B00069656E7469640D0A000000005741524E22
:1052C0003A09C1ACBDD3CAA7B0DCA3BAB7FECEF1D0
:1052D000C6F7CAA7B0DC0D0A000000005741524EC5
:1052E0003A09C1ACBDD3CAA7B0DCA3BAD3C3BBA72C
:1052F000C3FBBBF2C3DCC2EBB4EDCEF30D0A00007E
:105300005741524E3A09C1ACBDD3CAA7B0DCA3BACB
:10531000B7C7B7A8C1B4BDD328B1C8C8E7746F6B0D
:10532000656EB7C7B7A8290D0A0000004552523A6A
:1053300009C1ACBDD3CAA7B0DCA3BACEB4D6AAB457
:10534000EDCEF30D0A0000005741524E3A094D517F
:1053500054545F5061636B6574436F6E6E65637424
:10536000204661696C65640D0A0000004C00002055
:105370007B226964223A22256875222C2270617290
:10538000616D73223A7B00004400002022504822C5
:105390003A7B2276616C7565223A252E31667D2C2A
:1053A000000000004000002022544453223A7B2297
:1053B00076616C7565223A25647D2C003C000020E6
:1053C00022576174657254656D706572617475728F
:1053D00065223A7B2276616C7565223A252E31660C
:1053E0007D2C00002E00002008B1F0A000E0F1A00C
:1053F0000246F2A101A804F081FD01A9204603F0B4
:105400009FFCF548007804F090F8074604F015F981
:1054100005462A460B46F1A101A804F06FFD01A93B
:10542000204603F08DFCF548007808B1DFA000E0CD
:10543000E0A00246F2A101A804F060FD01A9204607
:1054400003F07EFCF548007808B1D8A000E0D9A0B0
:105450000246F3A101A804F051FD01A9204603F082
:105460006FFCF6A1204603F06BFC204603F090FC95
:10547000C0B211B0F0BD30B5C5B00020419042902F
:1054800043904490002400254FF4807101A803F05C
:105490004CFC01A8FFF7D2FD0446002C23D041A804
:1054A00000232246AFF2C8210090AFF2E42001F0C1
:1054B00038F9A0B908E001A8415D429A501C429019
:1054C00041988154681C05B2A542F4DB429A91B21E
:1054D000419801F070FD41A800F050FE03E0D8A112
:1054E000DF48FDF7C0F945B030BD70B588B005465E
:1054F0000C460020049005900690079023462A460B
:10550000D8A1D748FDF7AFF9204603F041FC064685
:1055100004A80121002200923346CDE90121039025
:10552000224629460A2001F01AF838B9059A91B2A4
:10553000049801F040FD04A800F020FE08B070BD02
:1055400000B595B00020119012901390149003A80C
:105550000290AFF27430AFF29033CAA238210090BB
:1055600003A804F0B3FC03AACEA1BD48FDF77BF964
:1055700011A8012302AA00210090142001F0DBF9F8
:1055800038B9129A91B2119801F015FD11A800F0E6
:10559000F5FD15B000BD2DE9F14F8AB0002009904E
:1055A00008900790069005900026814600278046C7
:1055B000824683460490002400250A9800F026FEC7
:1055C0000646032E04D0042E7ED0092E7DD1D8E0CD
:1055D000BA4805A906AA09ABCDE90021029007AA9D
:1055E00008A90A9801F0DFFA8146B9F1000F6DD1E0
:1055F000B3A19B48DDE90823FDF735F9099802F0CE
:1056000099FC0746002F61D0B4A1384603F098F802
:105610008046B8F1000F7DD0B2A1404603F090F86B
:105620000546E5B16869012802D0E86801280BD178
:105630004021B048FBF77BF8012078490870AEA103
:105640008748FDF710F90AE04021AA48FBF771F8F6
:10565000002072490870AEA18148FDF704F9B2A19B
:10566000404603F06DF80446D4B16069012802D0C9
:10567000E06801280AD1AF48FFF776F801205F49BA
:105680000870ADA17648FDF7EEF809E00020FFF7BD
:105690006BF8002059490870ACA17148FDF7E3F898
:1056A000AEA1404603F04CF88246BAF1000F1CD080
:1056B0004FF40051AA48FBF73AF80A20FCF7D2FF52
:1056C0004FF40051A64802E056E05FE053E0FBF7DC
:1056D00030F80A20FCF7C6FF4FF40051A048FBF752
:1056E00026F8A0A15E48FDF7BEF8A2A1404603F04F
:1056F00027F804900498D0B14FF480419848FBF704
:1057000016F80A20FCF7AEFF4FF480419448FBF7EF
:1057100010F800E02CE00A20FCF7A4FF4FF48041D1
:105720008F48FBF704F895A14D48FDF79CF898A128
:10573000404603F005F88346BBF1000F18D04FF444
:1057400080518748FAF7F3FF0A20FCF78BFF4FF4EC
:1057500080518348FAF7EDFF0A20FCF783FF4FF4EE
:1057600080517F48FAF7E3FF8CA13D48FDF77BF8B5
:10577000384601F0DDFD0AE08EA13948FDF773F8E7
:1057800005E093A13648FDF76EF800E000BF00BFCA
:1057900001F0CCFB032E05D1089805F035FB0998E4
:1057A00005F032FB0BB0BDE8F08F00007472756538
:1057B0000000000066616C7365000000224C6967A0
:1057C0006874537769746368223A7B2276616C75DA
:1057D00065223A25737D2C004800002022456E7614
:1057E00048756D6964697479223A7B2276616C75BB
:1057F00065223A252E31667D2C0000004B000020EA
:1058000022536572766F537769746368223A7B22FC
:1058100076616C7565223A25737D2C004A00002064
:1058200022486561746572537769746368223A7BB4
:105830002276616C7565223A25737D007D7D0000BE
:105840005741524E3A094544505F4E65774275665E
:10585000666572204661696C65640D0A000000008F
:10586000003801405075626C69736820546F70692C
:10587000633A2025732C204D73673A2025730D0A57
:1058800000000000247379732F25732F25732F7464
:1058900068696E672F70726F70657274792F7365A7
:1058A0007400000053756273637269626520546FFF
:1058B0007069633A2025730D0A0000004E00002035
:1058C000546F7069633A2025732C205061796C6F96
:1058D00061643A2025730D0A000000007061726156
:1058E0006D7300004865617465725377697463680D
:1058F0000000000000080140486561746572204F97
:105900004E20285041362048494748290D0A0000BA
:10591000486561746572204F464620285041362004
:105920004C4F57290D0A0000536572766F53776903
:105930007463680000003443536572766F204F4EE5
:105940002028313830290D0A000000005365727696
:105950006F204F4646202830290D0A006C656400F0
:10596000000C01404C4544205472696767657265BC
:10597000640D0A0070756D700000000050756D7048
:10598000205472696767657265640D0A0000000043
:105990007075726966696572000000005075726901
:1059A00066696572205472696767657265640D0A7D
:1059B00000000000546970733A204465766963659D
:1059C000205075626C6973682041636B0D0A00009A
:1059D000546970733A20537562736372696265200B
:1059E000537563636573730D0A000000F0B50446D8
:1059F000142C06DA01EA020523EA010685EA06000C
:105A000019E0282C04DA81EA020787EA030012E091
:105A10003C2C0ADA01EA020501EA030787EA0506D7
:105A200002EA030787EA060005E0502C03DA81EA60
:105A3000020787EA0300F0BD0146142901DAF7489E
:105A40000AE0282901DAF64806E03C2901DAF5489F
:105A500002E0502900DAF4487047F0B50246012010
:105A60009040441EE54301EA050020FA02F601EAEF
:105A70000400C2F1200C00FA0CF746EA07031846AE
:105A8000F0BDF0B50246C2F1200C012000FA0CF086
:105A9000441EE54301EA040000FA02F601EA0500AB
:105AA000C2F1200C20FA0CF746EA07031846F0BDB5
:105AB0002DE9F04FDDB007468A4615460AF1080980
:105AC00009F101094FEACA005B9048464FEAE971C3
:105AD00009EB91618E1148464FEAE97109EB91613A
